{
  "contractName": "MyContract",
  "abi": [
    {
      "inputs": [
        {
          "internalType": "uint256",
          "name": "",
          "type": "uint256"
        }
      ],
      "name": "tikets",
      "outputs": [
        {
          "internalType": "address",
          "name": "",
          "type": "address"
        }
      ],
      "stateMutability": "view",
      "type": "function",
      "constant": true
    },
    {
      "inputs": [
        {
          "internalType": "uint256",
          "name": "tiketIndex",
          "type": "uint256"
        }
      ],
      "name": "buyTiket",
      "outputs": [
        {
          "internalType": "bool",
          "name": "",
          "type": "bool"
        }
      ],
      "stateMutability": "nonpayable",
      "type": "function"
    },
    {
      "inputs": [],
      "name": "getTikets",
      "outputs": [
        {
          "internalType": "address[16]",
          "name": "",
          "type": "address[16]"
        }
      ],
      "stateMutability": "view",
      "type": "function",
      "constant": true
    }
  ],
  "bytecode": "0x608060405234801561001057600080fd5b506104b6806100206000396000f3fe608060405234801561001057600080fd5b50600436106100415760003560e01c80634d63e206146100465780638aeeae49146100765780638f627444146100a6575b600080fd5b610060600480360381019061005b91906102cb565b6100c4565b60405161006d9190610339565b60405180910390f35b610090600480360381019061008b91906102cb565b6100fa565b60405161009d919061036f565b60405180910390f35b6100ae6101ec565b6040516100bb9190610435565b60405180910390f35b600081601081106100d457600080fd5b016000915054906101000a900473ffffffffffffffffffffffffffffffffffffffff1681565b600080821015801561010d5750600f8211155b61011657600080fd5b600060019050600073ffffffffffffffffffffffffffffffffffffffff166000846010811061014857610147610451565b5b0160009054906101000a900473ffffffffffffffffffffffffffffffffffffffff1673ffffffffffffffffffffffffffffffffffffffff16036101de57336000846010811061019a57610199610451565b5b0160006101000a81548173ffffffffffffffffffffffffffffffffffffffff021916908373ffffffffffffffffffffffffffffffffffffffff1602179055506101e3565b600090505b80915050919050565b6101f461026d565b6000601080602002604051908101604052809291908260108015610263576020028201915b8160009054906101000a900473ffffffffffffffffffffffffffffffffffffffff1673ffffffffffffffffffffffffffffffffffffffff1681526020019060010190808311610219575b5050505050905090565b604051806102000160405280601090602082028036833780820191505090505090565b600080fd5b6000819050919050565b6102a881610295565b81146102b357600080fd5b50565b6000813590506102c58161029f565b92915050565b6000602082840312156102e1576102e0610290565b5b60006102ef848285016102b6565b91505092915050565b600073ffffffffffffffffffffffffffffffffffffffff82169050919050565b6000610323826102f8565b9050919050565b61033381610318565b82525050565b600060208201905061034e600083018461032a565b92915050565b60008115159050919050565b61036981610354565b82525050565b60006020820190506103846000830184610360565b92915050565b600060109050919050565b600081905092915050565b6000819050919050565b6103b381610318565b82525050565b60006103c583836103aa565b60208301905092915050565b6000602082019050919050565b6103e78161038a565b6103f18184610395565b92506103fc826103a0565b8060005b8381101561042d57815161041487826103b9565b965061041f836103d1565b925050600181019050610400565b505050505050565b60006102008201905061044b60008301846103de565b92915050565b7f4e487b7100000000000000000000000000000000000000000000000000000000600052603260045260246000fdfea26469706673582212208107c37ba4049d72f8aefe95e849f9991e754f990f5bbff51b38d2c96d1aab8064736f6c63430008110033",
  "immutableReferences": {},
  "source": "pragma solidity ^0.8.0;\r\n\r\ncontract MyContract {\r\n    address[16] public tikets;\r\n\r\n    function buyTiket(uint tiketIndex) public returns (bool) {\r\n        // Comprobacin\r\n        require(tiketIndex >= 0 && tiketIndex <= 15);\r\n\r\n        bool sucess = true;\r\n        \r\n        if ( tikets[tiketIndex] == address(0) ){\r\n            // msg.sender address del usuario que invoco al contrato\r\n            tikets[tiketIndex] = msg.sender;\r\n        } else {\r\n            sucess = false ;\r\n        }\r\n\r\n        return sucess;\r\n    }\r\n\r\n    function getTikets() public view returns (address[16] memory) {\r\n        return tikets;\r\n    }\r\n\r\n}\r\n",
  "sourcePath": "C:\\Users\\jorda\\Desktop\\Solidity\\0bnb\\contracts\\MyContract.sol",
  "compiler": {
    "name": "solc",
    "version": "0.8.17+commit.8df45f5f.Emscripten.clang"
  },
  "schemaVersion": "3.4.16",
  "updatedAt": "2023-10-13T09:15:25.279Z",
  "networkType": "ethereum",
  "devdoc": {
    "kind": "dev",
    "methods": {},
    "version": 1
  },
  "userdoc": {
    "kind": "user",
    "methods": {},
    "version": 1
  }
}